:020000040000FA
:200000000300000001320000000000006E0000009C0300000000000087000000BF00000057
:20002000FFFFFFFF0600000000000000000000000F00000008320000013200000000000042
:2000400000000000060000007300000012000000BED9DEFF00000000FFFFFF44050000005B
:200060000100000053797374656D00000000000000000000000000000000000000000000FA
:20008000000000000000000000000000000000000000000000000000000000000000000060
:2000A000000000000000000000000000000000000000000000000000000000000000000040
:2000C000000000000000000000000000000000000000000000000000000000000000000020
:2000E00000000000040000000232000001320000FF000000080000002100000077000000F6
:2001000014000000FFFFFFFF65000000FFFFFFFF000000005265746F726E617220616F2011
:200120004A6F676F0000000000000000000000000000000000000000000000000000000030
:2001400000000000000000000000000000000000000000000000000000000000000000009F
:2001600000000000000000000000000000000000000000000000000000000000000000007F
:2001800000000000000000000000000000000000000000000000000000000000000000005F
:2001A00000000000000000000000000000000000000000000000000000000000000000003F
:2001C00000000000000000000000000000000000000000000000000000000000000000001F
:2001E0000000000000000000000000000000000000000000000000000000000000000000FF
:2002000000000000000000000000000000000000000000000400000007320000013200006E
:20022000FF00000008000000360000007700000014000000FFFFFFFF65000000FFFFFFFF99
:2002400000000000436F6E6669670000000000000000000000000000000000000000000048
:2002600000000000000000000000000000000000000000000000000000000000000000007E
:2002800000000000000000000000000000000000000000000000000000000000000000005E
:2002A00000000000000000000000000000000000000000000000000000000000000000003E
:2002C00000000000000000000000000000000000000000000000000000000000000000001E
:2002E0000000000000000000000000000000000000000000000000000000000000000000FE
:200300000000000000000000000000000000000000000000000000000000000000000000DD
:200320000000000000000000000000000000000000000000000000000000000000000000BD
:2003400000000000040000000332000001320000FF000000080000004B0000007700000068
:2003600014000000FFFFFFFF65000000FFFFFFFF000000004368616E67652050616E656CB6
:2003800000000000000000000000000000000000000000000000000000000000000000005D
:2003A00000000000000000000000000000000000000000000000000000000000000000003D
:2003C00000000000000000000000000000000000000000000000000000000000000000001D
:2003E0000000000000000000000000000000000000000000000000000000000000000000FD
:200400000000000000000000000000000000000000000000000000000000000000000000DC
:200420000000000000000000000000000000000000000000000000000000000000000000BC
:2004400000000000000000000000000000000000000000000000000000000000000000009C
:2004600000000000000000000000000000000000000000000400000004320000013200000F
:20048000FF00000008000000600000007700000014000000FFFFFFFF65000000FFFFFFFF0D
:2004A000000000004368616E67652043686172616374657200000000000000000000000049
:2004C00000000000000000000000000000000000000000000000000000000000000000001C
:2004E0000000000000000000000000000000000000000000000000000000000000000000FC
:200500000000000000000000000000000000000000000000000000000000000000000000DB
:200520000000000000000000000000000000000000000000000000000000000000000000BB
:2005400000000000000000000000000000000000000000000000000000000000000000009B
:2005600000000000000000000000000000000000000000000000000000000000000000007B
:2005800000000000000000000000000000000000000000000000000000000000000000005B
:2005A00000000000040000000532000001320000FF000000080000007500000077000000DA
:2005C00014000000FFFFFFFF67000000FFFFFFFF000000004368616E67652053657276653D
:2005E000720000000000000000000000000000000000000000000000000000000000000089
:200600000000000000000000000000000000000000000000000000000000000000000000DA
:200620000000000000000000000000000000000000000000000000000000000000000000BA
:2006400000000000000000000000000000000000000000000000000000000000000000009A
:2006600000000000000000000000000000000000000000000000000000000000000000007A
:2006800000000000000000000000000000000000000000000000000000000000000000005A
:2006A00000000000000000000000000000000000000000000000000000000000000000003A
:2006C0000000000000000000000000000000000000000000040000000632000001320000AB
:2006E000FF000000080000009F0000007700000014000000FFFFFFFF67000000FFFFFFFF6A
:2007000000000000457869740000000000000000000000000000000000000000000000003F
:200720000000000000000000000000000000000000000000000000000000000000000000B9
:20074000000000000000000000000000000000000000000000000000000000000000000099
:20076000000000000000000000000000000000000000000000000000000000000000000079
:20078000000000000000000000000000000000000000000000000000000000000000000059
:2007A000000000000000000000000000000000000000000000000000000000000000000039
:2007C000000000000000000000000000000000000000000000000000000000000000000019
:2007E0000000000000000000000000000000000000000000000000000000000000000000F9
:20080000000000000300000041440000000000006E0000009C030000000000000802000039
:200820009E020000FFFFFFFF0600000000000000000000000F0000004244000041440000FC
:200840000000000000000000060000000802000012000000BED9DEFF00000000FFFFFF44C1
:200860000500000001000000416464205261436F696E73000000000000000000000000009A
:20088000000000000000000000000000000000000000000000000000000000000000000058
:2008A000000000000000000000000000000000000000000000000000000000000000000038
:2008C000000000000000000000000000000000000000000000000000000000000000000018
:2008E000000000000000000004000000434400004144000017000000F001000005000000DB
:200900001400000014000000FFFFFFFF81000000FFFFFFFF00000000200000000000000016
:200920000000000000000000000000000000000000000000000000000000000000000000B7
:20094000000000000000000000000000000000000000000000000000000000000000000097
:20096000000000000000000000000000000000000000000000000000000000000000000077
:20098000000000000000000000000000000000000000000000000000000000000000000057
:2009A000000000000000000000000000000000000000000000000000000000000000000037
:2009C000000000000000000000000000000000000000000000000000000000000000000017
:2009E0000000000000000000000000000000000000000000000000000000000000000000F7
:200A000000000000000000000000000000000000000000000000000003000000312E000074
:200A2000000000006D00000000000000000000003B00000020000000FFFFFFFF06000000EC
:200A4000000000000000000004000000322E0000312E000042000000010000000000000090
:200A60003900000010000000FFFFFFFF67000000FFFFFFFF00000000456469740000000048
:200A8000000000000000000000000000000000000000000000000000000000000000000056
:200AA000000000000000000000000000000000000000000000000000000000000000000036
:200AC000000000000000000000000000000000000000000000000000000000000000000016
:200AE0000000000000000000000000000000000000000000000000000000000000000000F6
:200B00000000000000000000000000000000000000000000000000000000000000000000D5
:200B20000000000000000000000000000000000000000000000000000000000000000000B5
:200B4000000000000000000000000000000000000000000000000000000000000000000095
:200B600000000000000000000000000000000000000000000000000004000000332E000010
:200B8000312E00004200000001000000100000003900000010000000FFFFFFFF67000000F7
:200BA000FFFFFFFF0000000044656C657465000000000000000000000000000000000000E6
:200BC000000000000000000000000000000000000000000000000000000000000000000015
:200BE0000000000000000000000000000000000000000000000000000000000000000000F5
:200C00000000000000000000000000000000000000000000000000000000000000000000D4
:200C20000000000000000000000000000000000000000000000000000000000000000000B4
:200C4000000000000000000000000000000000000000000000000000000000000000000094
:200C6000000000000000000000000000000000000000000000000000000000000000000074
:200C8000000000000000000000000000000000000000000000000000000000000000000054
:200CA000000000000000000001000000B12E000000000000C80000006400000064000000C4
:200CC0001801000054010000FFFFFFFF0600000001000000010000000F000000B22E0000B3
:200CE000B12E00000000000000000000060000001601000012000000BED9DEFF0000000072
:200D0000FFFFFF44050000000100000054656D706C6520496E666F726D6174696F6E00007F
:200D20000000000000000000000000000000000000000000000000000000000000000000B3
:200D4000000000000000000000000000000000000000000000000000000000000000000093
:200D6000000000000000000000000000000000000000000000000000000000000000000073
:200D800000000000000000000000000004000000B32E0000B12E000017000000FD0000007B
:200DA000050000001400000014000000FFFFFFFF81000000FFFFFFFF00000000200000006D
:200DC000000000000000000000000000000000000000000000000000000000000000000013
:200DE0000000000000000000000000000000000000000000000000000000000000000000F3
:200E00000000000000000000000000000000000000000000000000000000000000000000D2
:200E20000000000000000000000000000000000000000000000000000000000000000000B2
:200E4000000000000000000000000000000000000000000000000000000000000000000092
:200E6000000000000000000000000000000000000000000000000000000000000000000072
:200E8000000000000000000000000000000000000000000000000000000000000000000052
:200EA000000000000000000000000000000000000000000000000000000000000F00000023
:200EC000B42E0000B12E0000000000000C000000250000006E00000012000000FFFFFFFFA4
:200EE00000000000FFFFFF22030000000000000054656D706C6520496E666F726D617469A0
:200F00006F6E000000000000000000000000000000000000000000000000000000000000F4
:200F20000000000000000000000000000000000000000000000000000000000000000000B1
:200F4000000000000000000000000000000000000000000000000000000000000000000091
:200F6000000000000000000000000000000000000F000000B52E0000B12E000000000000A0
:200F800000000000400000001801000012000000BED9DEFF00000000FFFFFF44050000002C
:200FA0000100000054656D706C6520416D61726B616E64000000000000000000000000008A
:200FC000000000000000000000000000000000000000000000000000000000000000000011
:200FE0000000000000000000000000000000000000000000000000000000000000000000F1
:201000000000000000000000000000000000000000000000000000000000000000000000D0
:201020000000000008000000B62E0000B12E000000000000070000000700000014000000C3
:2010400064000000F8000000770000000000000004000000010000000000000000000000B8
:2010600000000000000000000F000000B72E0000B12E0000000000000C000000DE000000B3
:201080006E00000012000000FFFFFFFF00000000FFFFFF22030000000000000052656C6926
:2010A000717561727920496E666F726D6174696F6E00000000000000000000000000000058
:2010C000000000000000000000000000000000000000000000000000000000000000000010
:2010E0000000000000000000000000000000000000000000000000000000000000000000F0
:201100000000000000000000000000000000000000000000000000000000000013000000BC
:20112000B82E0000B12E0000050000000100000019000000FC000000F70000002F000000A9
:201140000300000001310000000000006D00000000000000000000007A0000004000000033
:201160000000000006000000000000000000000004000000023100000131000042000000BE
:2011800001000000000000007800000010000000FFFFFFFF67000000FFFFFFFF0000000067
:2011A00045786368616E67650000000000000000000000000000000000000000000000000C
:2011C00000000000000000000000000000000000000000000000000000000000000000000F
:2011E0000000000000000000000000000000000000000000000000000000000000000000EF
:201200000000000000000000000000000000000000000000000000000000000000000000CE
:201220000000000000000000000000000000000000000000000000000000000000000000AE
:2012400000000000000000000000000000000000000000000000000000000000000000008E
:2012600000000000000000000000000000000000000000000000000000000000000000006E
:2012800000000000000000000000000000000000000000000000000000000000000000004E
:2012A0000400000003310000013100004200000001000000100000007800000010000000E9
:2012C000FFFFFFFF67000000FFFFFFFF0000000047726F75700000000000000000000000A2
:2012E0000000000000000000000000000000000000000000000000000000000000000000EE
:201300000000000000000000000000000000000000000000000000000000000000000000CD
:201320000000000000000000000000000000000000000000000000000000000000000000AD
:2013400000000000000000000000000000000000000000000000000000000000000000008D
:2013600000000000000000000000000000000000000000000000000000000000000000006D
:2013800000000000000000000000000000000000000000000000000000000000000000004D
:2013A00000000000000000000000000000000000000000000000000000000000000000002D
:2013C000000000000000000000000000000000000400000004310000013100004200000060
:2013E00001000000200000007800000010000000FFFFFFFF67000000FFFFFFFF00000000E5
:201400004C6567696F6E00000000000000000000000000000000000000000000000000006E
:201420000000000000000000000000000000000000000000000000000000000000000000AC
:2014400000000000000000000000000000000000000000000000000000000000000000008C
:2014600000000000000000000000000000000000000000000000000000000000000000006C
:2014800000000000000000000000000000000000000000000000000000000000000000004C
:2014A00000000000000000000000000000000000000000000000000000000000000000002C
:2014C00000000000000000000000000000000000000000000000000000000000000000000C
:2014E0000000000000000000000000000000000000000000000000000000000000000000EC
:20150000040000000531000001310000420000000100000030000000780000001000000064
:20152000FFFFFFFF67000000FFFFFFFF000000004775696C64000000000000000000000057
:2015400000000000000000000000000000000000000000000000000000000000000000008B
:2015600000000000000000000000000000000000000000000000000000000000000000006B
:2015800000000000000000000000000000000000000000000000000000000000000000004B
:2015A00000000000000000000000000000000000000000000000000000000000000000002B
:2015C00000000000000000000000000000000000000000000000000000000000000000000B
:2015E0000000000000000000000000000000000000000000000000000000000000000000EB
:201600000000000000000000000000000000000000000000000000000000000000000000CA
:201620000000000000000000000000000000000004000000063100000131000042000000FB
:2016400001000000300000007800000010000000FFFFFFFF67000000FFFFFFFF0000000072
:2016600052656D6F7665204775696C640000000000000000000000000000000000000000E7
:2016800000000000000000000000000000000000000000000000000000000000000000004A
:2016A00000000000000000000000000000000000000000000000000000000000000000002A
:2016C00000000000000000000000000000000000000000000000000000000000000000000A
:2016E0000000000000000000000000000000000000000000000000000000000000000000EA
:201700000000000000000000000000000000000000000000000000000000000000000000C9
:201720000000000000000000000000000000000000000000000000000000000000000000A9
:20174000000000000000000000000000000000000000000000000000000000000000000089
:201760000400000007310000013100004200000001000000400000007800000010000000F0
:20178000FFFFFFFF67000000FFFFFFFF0000000041646420467269656E6400000000000069
:2017A000000000000000000000000000000000000000000000000000000000000000000029
:2017C000000000000000000000000000000000000000000000000000000000000000000009
:2017E0000000000000000000000000000000000000000000000000000000000000000000E9
:201800000000000000000000000000000000000000000000000000000000000000000000C8
:201820000000000000000000000000000000000000000000000000000000000000000000A8
:20184000000000000000000000000000000000000000000000000000000000000000000088
:20186000000000000000000000000000000000000000000000000000000000000000000068
:20188000000000000000000000000000000000000400000008310000013100004200000097
:2018A00001000000500000007800000010000000FFFFFFFF65000000FFFFFFFF00000000F2
:2018C0004769766520476966740000000000000000000000000000000000000000000000D3
:2018E0000000000000000000000000000000000000000000000000000000000000000000E8
:201900000000000000000000000000000000000000000000000000000000000000000000C7
:201920000000000000000000000000000000000000000000000000000000000000000000A7
:20194000000000000000000000000000000000000000000000000000000000000000000087
:20196000000000000000000000000000000000000000000000000000000000000000000067
:20198000000000000000000000000000000000000000000000000000000000000000000047
:2019A000000000000000000000000000000000000000000000000000000000000000000027
:2019C000040000001231000001310000420000000100000060000000780000001000000063
:2019E000FFFFFFFF65000000FFFFFFFF00000000466F6C6C6F770000000000000000000017
:201A00000000000000000000000000000000000000000000000000000000000000000000C6
:201A20000000000000000000000000000000000000000000000000000000000000000000A6
:201A4000000000000000000000000000000000000000000000000000000000000000000086
:201A6000000000000000000000000000000000000000000000000000000000000000000066
:201A8000000000000000000000000000000000000000000000000000000000000000000046
:201AA000000000000000000000000000000000000000000000000000000000000000000026
:201AC000000000000000000000000000000000000000000000000000000000000000000006
:201AE0000000000000000000000000000000000001000000122C00000000000000000000A7
:201B000000000000000000007A000000400000000000000006000000000000000000000005
:201B200004000000132C0000122C0000420000000100000000000000780000001000000059
:201B4000FFFFFFFF68000000FFFFFFFF00000000457869740000000000000000000000008B
:201B6000000000000000000000000000000000000000000000000000000000000000000065
:201B8000000000000000000000000000000000000000000000000000000000000000000045
:201BA000000000000000000000000000000000000000000000000000000000000000000025
:201BC000000000000000000000000000000000000000000000000000000000000000000005
:201BE0000000000000000000000000000000000000000000000000000000000000000000E5
:201C00000000000000000000000000000000000000000000000000000000000000000000C4
:201C20000000000000000000000000000000000000000000000000000000000000000000A4
:201C40000000000000000000000000000000000004000000142C0000122C000042000000C0
:201C600001000000100000007800000010000000FFFFFFFF66000000FFFFFFFF000000006D
:201C8000556E646F00000000000000000000000000000000000000000000000000000000AE
:201CA000000000000000000000000000000000000000000000000000000000000000000024
:201CC000000000000000000000000000000000000000000000000000000000000000000004
:201CE0000000000000000000000000000000000000000000000000000000000000000000E4
:201D00000000000000000000000000000000000000000000000000000000000000000000C3
:201D20000000000000000000000000000000000000000000000000000000000000000000A3
:201D4000000000000000000000000000000000000000000000000000000000000000000083
:201D6000000000000000000000000000000000000000000000000000000000000000000063
:201D800004000000152C0000122C00004200000001000000200000007800000010000000D5
:201DA000FFFFFFFF68000000FFFFFFFF0000000052656D6F76652047726F75700000000028
:201DC000000000000000000000000000000000000000000000000000000000000000000003
:201DE0000000000000000000000000000000000000000000000000000000000000000000E3
:201E00000000000000000000000000000000000000000000000000000000000000000000C2
:201E20000000000000000000000000000000000000000000000000000000000000000000A2
:201E4000000000000000000000000000000000000000000000000000000000000000000082
:201E6000000000000000000000000000000000000000000000000000000000000000000062
:201E8000000000000000000000000000000000000000000000000000000000000000000042
:201EA0000000000000000000000000000000000004000000162C0000122C0000420000005C
:201EC00001000000300000007800000010000000FFFFFFFF68000000FFFFFFFF00000000E9
:201EE00047726F7570204C6561646572000000000000000000000000000000000000000068
:201F00000000000000000000000000000000000000000000000000000000000000000000C1
:201F20000000000000000000000000000000000000000000000000000000000000000000A1
:201F4000000000000000000000000000000000000000000000000000000000000000000081
:201F6000000000000000000000000000000000000000000000000000000000000000000061
:201F8000000000000000000000000000000000000000000000000000000000000000000041
:201FA000000000000000000000000000000000000000000000000000000000000000000021
:201FC000000000000000000000000000000000000000000000000000000000000000000001
:201FE00004000000172C0000122C0000420000000100000040000000780000001000000051
:20200000FFFFFFFF68000000FFFFFFFF0000000045786974204C6567696F6E000000000048
:202020000000000000000000000000000000000000000000000000000000000000000000A0
:20204000000000000000000000000000000000000000000000000000000000000000000080
:20206000000000000000000000000000000000000000000000000000000000000000000060
:20208000000000000000000000000000000000000000000000000000000000000000000040
:2020A000000000000000000000000000000000000000000000000000000000000000000020
:2020C000000000000000000000000000000000000000000000000000000000000000000000
:2020E0000000000000000000000000000000000000000000000000000000000000000000E0
:202100000000000000000000000000000000000004000000182C0000122C000042000000F7
:2021200001000000500000007800000010000000FFFFFFFF68000000FFFFFFFF0000000066
:2021400044656C657465204C6567696F6E00000000000000000000000000000000000000AE
:2021600000000000000000000000000000000000000000000000000000000000000000005F
:2021800000000000000000000000000000000000000000000000000000000000000000003F
:2021A00000000000000000000000000000000000000000000000000000000000000000001F
:2021C0000000000000000000000000000000000000000000000000000000000000000000FF
:2021E0000000000000000000000000000000000000000000000000000000000000000000DF
:202200000000000000000000000000000000000000000000000000000000000000000000BE
:2022200000000000000000000000000000000000000000000000000000000000000000009E
:2022400004000000192C0000122C00004200000001000000600000007800000010000000CC
:20226000FFFFFFFF68000000FFFFFFFF0000000052656D6F7665204C6567696F6E00000012
:2022800000000000000000000000000000000000000000000000000000000000000000003E
:2022A00000000000000000000000000000000000000000000000000000000000000000001E
:2022C0000000000000000000000000000000000000000000000000000000000000000000FE
:2022E0000000000000000000000000000000000000000000000000000000000000000000DE
:202300000000000000000000000000000000000000000000000000000000000000000000BD
:2023200000000000000000000000000000000000000000000000000000000000000000009D
:2023400000000000000000000000000000000000000000000000000000000000000000007D
:2023600000000000000000000000000000000000040000001A2C0000122C00004200000093
:2023800001000000700000007800000010000000FFFFFFFF68000000FFFFFFFF00000000E4
:2023A0004C6567696F6E204C65616465720000000000000000000000000000000000000052
:2023C0000000000000000000000000000000000000000000000000000000000000000000FD
:2023E0000000000000000000000000000000000000000000000000000000000000000000DD
:202400000000000000000000000000000000000000000000000000000000000000000000BC
:2024200000000000000000000000000000000000000000000000000000000000000000009C
:2024400000000000000000000000000000000000000000000000000000000000000000007C
:2024600000000000000000000000000000000000000000000000000000000000000000005C
:2024800000000000000000000000000000000000000000000000000000000000000000003C
:2024A00001000000C13E0000000000000000000000000000000000007A0000004000000062
:2024C0000000000006000000000000000000000004000000C23E0000C13E000042000000B1
:2024E00001000000000000007800000010000000FFFFFFFF67000000FFFFFFFF00000000F4
:2025000043616C6C2047726F75700000000000000000000000000000000000000000000012
:2025200000000000000000000000000000000000000000000000000000000000000000009B
:2025400000000000000000000000000000000000000000000000000000000000000000007B
:2025600000000000000000000000000000000000000000000000000000000000000000005B
:2025800000000000000000000000000000000000000000000000000000000000000000003B
:2025A00000000000000000000000000000000000000000000000000000000000000000001B
:2025C0000000000000000000000000000000000000000000000000000000000000000000FB
:2025E0000000000000000000000000000000000000000000000000000000000000000000DB
:2026000004000000C33E0000C13E00004200000001000000100000007800000010000000DB
:20262000FFFFFFFF67000000FFFFFFFF0000000043616C6C204775696C64000000000000AA
:2026400000000000000000000000000000000000000000000000000000000000000000007A
:2026600000000000000000000000000000000000000000000000000000000000000000005A
:2026800000000000000000000000000000000000000000000000000000000000000000003A
:2026A00000000000000000000000000000000000000000000000000000000000000000001A
:2026C0000000000000000000000000000000000000000000000000000000000000000000FA
:2026E0000000000000000000000000000000000000000000000000000000000000000000DA
:202700000000000000000000000000000000000000000000000000000000000000000000B9
:202720000000000000000000000000000000000004000000C43E0000C13E00004200000052
:2027400001000000200000007800000010000000FFFFFFFF67000000FFFFFFFF0000000071
:2027600041444420467269656E640000000000000000000000000000000000000000000018
:20278000000000000000000000000000000000000000000000000000000000000000000039
:2027A000000000000000000000000000000000000000000000000000000000000000000019
:2027C0000000000000000000000000000000000000000000000000000000000000000000F9
:2027E0000000000000000000000000000000000000000000000000000000000000000000D9
:202800000000000000000000000000000000000000000000000000000000000000000000B8
:20282000000000000000000000000000000000000000000000000000000000000000000098
:20284000000000000000000000000000000000000000000000000000000000000000000078
:2028600004000000C53E0000C13E0000420000000100000030000000780000001000000057
:20288000FFFFFFFF67000000FFFFFFFF000000004D6173746572000000000000000000006D
:2028A000000000000000000000000000000000000000000000000000000000000000000018
:2028C0000000000000000000000000000000000000000000000000000000000000000000F8
:2028E0000000000000000000000000000000000000000000000000000000000000000000D8
:202900000000000000000000000000000000000000000000000000000000000000000000B7
:20292000000000000000000000000000000000000000000000000000000000000000000097
:20294000000000000000000000000000000000000000000000000000000000000000000077
:20296000000000000000000000000000000000000000000000000000000000000000000057
:202980000000000000000000000000000000000004000000C63E0000C13E000042000000EE
:2029A00001000000400000007800000010000000FFFFFFFF67000000FFFFFFFF00000000EF
:2029C00052656D6F7665000000000000000000000000000000000000000000000000000089
:2029E0000000000000000000000000000000000000000000000000000000000000000000D7
:202A00000000000000000000000000000000000000000000000000000000000000000000B6
:202A2000000000000000000000000000000000000000000000000000000000000000000096
:202A4000000000000000000000000000000000000000000000000000000000000000000076
:202A6000000000000000000000000000000000000000000000000000000000000000000056
:202A8000000000000000000000000000000000000000000000000000000000000000000036
:202AA000000000000000000000000000000000000000000000000000000000000000000016
:202AC00001000000B1450000000000000000000000000000000000007A0000004000000045
:202AE0000000000006000000000000000000000004000000B2450000B1450000420000009D
:202B000001000000000000007800000010000000FFFFFFFF67000000FFFFFFFF00000000CD
:202B20004368616E6765204D617374657200000000000000000000000000000000000000C3
:202B4000000000000000000000000000000000000000000000000000000000000000000075
:202B6000000000000000000000000000000000000000000000000000000000000000000055
:202B8000000000000000000000000000000000000000000000000000000000000000000035
:202BA000000000000000000000000000000000000000000000000000000000000000000015
:202BC0000000000000000000000000000000000000000000000000000000000000000000F5
:202BE0000000000000000000000000000000000000000000000000000000000000000000D5
:202C00000000000000000000000000000000000000000000000000000000000000000000B4
:202C200004000000B3450000B14500004200000001000000100000007800000010000000C7
:202C4000FFFFFFFF67000000FFFFFFFF00000000457870656C6C00000000000000000000AB
:202C6000000000000000000000000000000000000000000000000000000000000000000054
:202C8000000000000000000000000000000000000000000000000000000000000000000034
:202CA000000000000000000000000000000000000000000000000000000000000000000014
:202CC0000000000000000000000000000000000000000000000000000000000000000000F4
:202CE0000000000000000000000000000000000000000000000000000000000000000000D4
:202D00000000000000000000000000000000000000000000000000000000000000000000B3
:202D2000000000000000000000000000000000000000000000000000000000000000000093
:202D40000000000000000000000000000000000001000000312A0000000000000000000017
:202D600000000000000000007A000000710000000000000006000000000000000000000062
:202D800004000000322A0000312A00004200000001000000000000007800000010000000AD
:202DA000FFFFFFFF65000000FFFFFFFF00000000416C6C69616E6365204C65616465720030
:202DC0000000000000000000000000000000000000000000000000000000000000000000F3
:202DE0000000000000000000000000000000000000000000000000000000000000000000D3
:202E00000000000000000000000000000000000000000000000000000000000000000000B2
:202E2000000000000000000000000000000000000000000000000000000000000000000092
:202E4000000000000000000000000000000000000000000000000000000000000000000072
:202E6000000000000000000000000000000000000000000000000000000000000000000052
:202E8000000000000000000000000000000000000000000000000000000000000000000032
:202EA0000000000000000000000000000000000004000000332A0000312A00004200000014
:202EC00001000000100000007800000010000000FFFFFFFF65000000FFFFFFFF00000000FC
:202EE00052656D6F766520416C6C69616E636500000000000000000000000000000000002B
:202F00000000000000000000000000000000000000000000000000000000000000000000B1
:202F2000000000000000000000000000000000000000000000000000000000000000000091
:202F4000000000000000000000000000000000000000000000000000000000000000000071
:202F6000000000000000000000000000000000000000000000000000000000000000000051
:202F8000000000000000000000000000000000000000000000000000000000000000000031
:202FA000000000000000000000000000000000000000000000000000000000000000000011
:202FC0000000000000000000000000000000000000000000000000000000000000000000F1
:202FE00004000000342A0000312A0000420000000100000000000000780000001000000049
:20300000FFFFFFFF65000000FFFFFFFF000000004C6561766520416C6C69616E636500002D
:20302000000000000000000000000000000000000000000000000000000000000000000090
:20304000000000000000000000000000000000000000000000000000000000000000000070
:20306000000000000000000000000000000000000000000000000000000000000000000050
:20308000000000000000000000000000000000000000000000000000000000000000000030
:2030A000000000000000000000000000000000000000000000000000000000000000000010
:2030C0000000000000000000000000000000000000000000000000000000000000000000F0
:2030E0000000000000000000000000000000000000000000000000000000000000000000D0
:2031000000000000000000000000000000000000010000003A2A000000000000000000004A
:2031200000000000000000007A00000071000000000000000600000000000000000000009E
:2031400001000000732A00003A2A00000000000000000000000000007A0000007100000082
:203160000000000006000000000000000000000001000000742A00003A2A00000000000046
:2031800000000000000000003B00000071000000000000000600000000000000000000007D
:2031A0000100000066200000000000002D0000000000000000000000360000008C00000099
:2031C000FFFFFFFF0600000000000000000000000400000067200000662000008500000057
:2031E00001000000ECFFFFFF3400000014000000FFFFFFFF67000000CCCCCCFF00000000D7
:2032000047656E6572616C00000000000000000000000000000000000000000000000000F0
:2032200000000000000000000000000000000000000000000000000000000000000000008E
:2032400000000000000000000000000000000000000000000000000000000000000000006E
:2032600000000000000000000000000000000000000000000000000000000000000000004E
:2032800000000000000000000000000000000000000000000000000000000000000000002E
:2032A00000000000000000000000000000000000000000000000000000000000000000000E
:2032C0000000000000000000000000000000000000000000000000000000000000000000EE
:2032E0000000000000000000000000000000000000000000000000000000000000000000CE
:203300000400000068200000662000008500000001000000000000003400000014000000CD
:20332000FFFFFFFF67000000CCCCCCFF000000004D5000000000000000000000000000002A
:2033400000000000000000000000000000000000000000000000000000000000000000006D
:2033600000000000000000000000000000000000000000000000000000000000000000004D
:2033800000000000000000000000000000000000000000000000000000000000000000002D
:2033A00000000000000000000000000000000000000000000000000000000000000000000D
:2033C0000000000000000000000000000000000000000000000000000000000000000000ED
:2033E0000000000000000000000000000000000000000000000000000000000000000000CD
:203400000000000000000000000000000000000000000000000000000000000000000000AC
:203420000000000000000000000000000000000004000000692000006620000085000000F4
:2034400001000000140000003400000014000000FFFFFFFF67000000CCCCCCFF0000000049
:2034600047726F75700000000000000000000000000000000000000000000000000000003F
:2034800000000000000000000000000000000000000000000000000000000000000000002C
:2034A00000000000000000000000000000000000000000000000000000000000000000000C
:2034C0000000000000000000000000000000000000000000000000000000000000000000EC
:2034E0000000000000000000000000000000000000000000000000000000000000000000CC
:203500000000000000000000000000000000000000000000000000000000000000000000AB
:2035200000000000000000000000000000000000000000000000000000000000000000008B
:2035400000000000000000000000000000000000000000000000000000000000000000006B
:20356000040000006A20000066200000850000000100000028000000340000001400000041
:20358000FFFFFFFF67000000CCCCCCFF000000004775696C64000000000000000000000070
:2035A00000000000000000000000000000000000000000000000000000000000000000000B
:2035C0000000000000000000000000000000000000000000000000000000000000000000EB
:2035E0000000000000000000000000000000000000000000000000000000000000000000CB
:203600000000000000000000000000000000000000000000000000000000000000000000AA
:2036200000000000000000000000000000000000000000000000000000000000000000008A
:2036400000000000000000000000000000000000000000000000000000000000000000006A
:2036600000000000000000000000000000000000000000000000000000000000000000004A
:2036800000000000000000000000000000000000040000006B200000662000008500000090
:2036A000010000003C0000003400000014000000FFFFFFFF67000000CCCCCCFF00000000BF
:2036C00053686F7574000000000000000000000000000000000000000000000000000000D7
:2036E0000000000000000000000000000000000000000000000000000000000000000000CA
:203700000000000000000000000000000000000000000000000000000000000000000000A9
:20372000000000000000000000000000000000000000000000000000000000000000000089
:20374000000000000000000000000000000000000000000000000000000000000000000069
:20376000000000000000000000000000000000000000000000000000000000000000000049
:20378000000000000000000000000000000000000000000000000000000000000000000029
:2037A000000000000000000000000000000000000000000000000000000000000000000009
:2037C000040000006C200000662000008500000001000000500000003400000014000000B5
:2037E000FFFFFFFF67000000CCCCCCFF00000000416C69616E636500000000000000000056
:203800000000000000000000000000000000000000000000000000000000000000000000A8
:20382000000000000000000000000000000000000000000000000000000000000000000088
:20384000000000000000000000000000000000000000000000000000000000000000000068
:20386000000000000000000000000000000000000000000000000000000000000000000048
:20388000000000000000000000000000000000000000000000000000000000000000000028
:2038A000000000000000000000000000000000000000000000000000000000000000000008
:2038C0000000000000000000000000000000000000000000000000000000000000000000E8
:2038E00000000000000000000000000000000000040000006D20000066200000850000002C
:2039000001000000640000003400000014000000FFFFFFFF67000000CCCCCCFF0000000034
:203920004E6174696F6E00000000000000000000000000000000000000000000000000001E
:20394000000000000000000000000000000000000000000000000000000000000000000067
:20396000000000000000000000000000000000000000000000000000000000000000000047
:20398000000000000000000000000000000000000000000000000000000000000000000027
:2039A000000000000000000000000000000000000000000000000000000000000000000007
:2039C0000000000000000000000000000000000000000000000000000000000000000000E7
:2039E0000000000000000000000000000000000000000000000000000000000000000000C7
:203A00000000000000000000000000000000000000000000000000000000000000000000A6
:203A2000040000006E20000066200000850000000100000078000000340000001400000028
:203A4000FFFFFFFF67000000AAFFFFFF000000004D656761666F6E6500000000000000003A
:203A6000000000000000000000000000000000000000000000000000000000000000000046
:203A8000000000000000000000000000000000000000000000000000000000000000000026
:203AA000000000000000000000000000000000000000000000000000000000000000000006
:203AC0000000000000000000000000000000000000000000000000000000000000000000E6
:203AE0000000000000000000000000000000000000000000000000000000000000000000C6
:203B00000000000000000000000000000000000000000000000000000000000000000000A5
:203B2000000000000000000000000000000000000000000000000000000000000000000085
:203B400000000000000000000000000000000000040000003B2A0000732A0000420000001D
:203B600001000000000000007800000010000000FFFFFFFF65000000FFFFFFFF000000005F
:203B800041444420467269656E6400000000000000000000000000000000000000000000E4
:203BA000000000000000000000000000000000000000000000000000000000000000000005
:203BC0000000000000000000000000000000000000000000000000000000000000000000E5
:203BE0000000000000000000000000000000000000000000000000000000000000000000C5
:203C00000000000000000000000000000000000000000000000000000000000000000000A4
:203C2000000000000000000000000000000000000000000000000000000000000000000084
:203C4000000000000000000000000000000000000000000000000000000000000000000064
:203C6000000000000000000000000000000000000000000000000000000000000000000044
:203C8000040000003C2A0000732A0000420000000100000010000000780000001000000042
:203CA000FFFFFFFF65000000FFFFFFFF0000000043616C6C2047726F7570000000000000FE
:203CC0000000000000000000000000000000000000000000000000000000000000000000E4
:203CE0000000000000000000000000000000000000000000000000000000000000000000C4
:203D00000000000000000000000000000000000000000000000000000000000000000000A3
:203D2000000000000000000000000000000000000000000000000000000000000000000083
:203D4000000000000000000000000000000000000000000000000000000000000000000063
:203D6000000000000000000000000000000000000000000000000000000000000000000043
:203D8000000000000000000000000000000000000000000000000000000000000000000023
:203DA00000000000000000000000000000000000040000003D2A0000732A000042000000B9
:203DC00001000000200000007800000010000000FFFFFFFF65000000FFFFFFFF00000000DD
:203DE0004D5000000000000000000000000000000000000000000000000000000000000026
:203E00000000000000000000000000000000000000000000000000000000000000000000A2
:203E2000000000000000000000000000000000000000000000000000000000000000000082
:203E4000000000000000000000000000000000000000000000000000000000000000000062
:203E6000000000000000000000000000000000000000000000000000000000000000000042
:203E8000000000000000000000000000000000000000000000000000000000000000000022
:203EA000000000000000000000000000000000000000000000000000000000000000000002
:203EC0000000000000000000000000000000000000000000000000000000000000000000E2
:203EE000040000003E2A0000732A00004200000001000000300000007800000010000000BE
:203F0000FFFFFFFF65000000FFFFFFFF0000000052656D6F7665204775696C6400000000C1
:203F2000000000000000000000000000000000000000000000000000000000000000000081
:203F4000000000000000000000000000000000000000000000000000000000000000000061
:203F6000000000000000000000000000000000000000000000000000000000000000000041
:203F8000000000000000000000000000000000000000000000000000000000000000000021
:203FA000000000000000000000000000000000000000000000000000000000000000000001
:203FC0000000000000000000000000000000000000000000000000000000000000000000E1
:203FE0000000000000000000000000000000000000000000000000000000000000000000C1
:2040000000000000000000000000000000000000040000003F2A0000732A00004200000054
:2040200001000000300000007800000010000000FFFFFFFF65000000FFFFFFFF000000006A
:2040400045786974204775696C6400000000000000000000000000000000000000000000B1
:20406000000000000000000000000000000000000000000000000000000000000000000040
:20408000000000000000000000000000000000000000000000000000000000000000000020
:2040A000000000000000000000000000000000000000000000000000000000000000000000
:2040C0000000000000000000000000000000000000000000000000000000000000000000E0
:2040E0000000000000000000000000000000000000000000000000000000000000000000C0
:2041000000000000000000000000000000000000000000000000000000000000000000009F
:2041200000000000000000000000000000000000000000000000000000000000000000007F
:2041400004000000402A0000732A0000420000000100000040000000780000001000000049
:20416000FFFFFFFF65000000FFFFFFFF0000000052616E6B696E6700000000000000000018
:2041800000000000000000000000000000000000000000000000000000000000000000001F
:2041A0000000000000000000000000000000000000000000000000000000000000000000FF
:2041C0000000000000000000000000000000000000000000000000000000000000000000DF
:2041E0000000000000000000000000000000000000000000000000000000000000000000BF
:2042000000000000000000000000000000000000000000000000000000000000000000009E
:2042200000000000000000000000000000000000000000000000000000000000000000007E
:2042400000000000000000000000000000000000000000000000000000000000000000005E
:204260000000000000000000000000000000000004000000412A0000732A000042000000F0
:2042800001000000400000007800000010000000FFFFFFFF65000000FFFFFFFF00000000F8
:2042A0004775696C64204C656164657200000000000000000000000000000000000000009C
:2042C0000000000000000000000000000000000000000000000000000000000000000000DE
:2042E0000000000000000000000000000000000000000000000000000000000000000000BE
:2043000000000000000000000000000000000000000000000000000000000000000000009D
:2043200000000000000000000000000000000000000000000000000000000000000000007D
:2043400000000000000000000000000000000000000000000000000000000000000000005D
:2043600000000000000000000000000000000000000000000000000000000000000000003D
:2043800000000000000000000000000000000000000000000000000000000000000000001D
:2043A00004000000752A0000742A0000420000000100000000000000390000001000000030
:2043C000FFFFFFFF65000000FFFFFFFF00000000506C61746F6F6E20310000000000000052
:2043E0000000000000000000000000000000000000000000000000000000000000000000BD
:2044000000000000000000000000000000000000000000000000000000000000000000009C
:2044200000000000000000000000000000000000000000000000000000000000000000007C
:2044400000000000000000000000000000000000000000000000000000000000000000005C
:2044600000000000000000000000000000000000000000000000000000000000000000003C
:2044800000000000000000000000000000000000000000000000000000000000000000001C
:2044A0000000000000000000000000000000000000000000000000000000000000000000FC
:2044C0000000000000000000000000000000000004000000762A0000742A00004200000058
:2044E00001000000100000003900000010000000FFFFFFFF65000000FFFFFFFF0000000005
:20450000506C61746F6F6E203200000000000000000000000000000000000000000000006C
:2045200000000000000000000000000000000000000000000000000000000000000000007B
:2045400000000000000000000000000000000000000000000000000000000000000000005B
:2045600000000000000000000000000000000000000000000000000000000000000000003B
:2045800000000000000000000000000000000000000000000000000000000000000000001B
:2045A0000000000000000000000000000000000000000000000000000000000000000000FB
:2045C0000000000000000000000000000000000000000000000000000000000000000000DB
:2045E0000000000000000000000000000000000000000000000000000000000000000000BB
:2046000004000000772A0000742A00004200000001000000200000003900000010000000AB
:20462000FFFFFFFF65000000FFFFFFFF00000000506C61746F6F6E203300000000000000ED
:2046400000000000000000000000000000000000000000000000000000000000000000005A
:2046600000000000000000000000000000000000000000000000000000000000000000003A
:2046800000000000000000000000000000000000000000000000000000000000000000001A
:2046A0000000000000000000000000000000000000000000000000000000000000000000FA
:2046C0000000000000000000000000000000000000000000000000000000000000000000DA
:2046E0000000000000000000000000000000000000000000000000000000000000000000BA
:20470000000000000000000000000000000000000000000000000000000000000000000099
:204720000000000000000000000000000000000004000000782A0000742A000042000000F3
:2047400001000000300000003900000010000000FFFFFFFF65000000FFFFFFFF0000000082
:20476000506C61746F6F6E2034000000000000000000000000000000000000000000000008
:20478000000000000000000000000000000000000000000000000000000000000000000019
:2047A0000000000000000000000000000000000000000000000000000000000000000000F9
:2047C0000000000000000000000000000000000000000000000000000000000000000000D9
:2047E0000000000000000000000000000000000000000000000000000000000000000000B9
:20480000000000000000000000000000000000000000000000000000000000000000000098
:20482000000000000000000000000000000000000000000000000000000000000000000078
:20484000000000000000000000000000000000000000000000000000000000000000000058
:20486000030000009A200000000000006E0000000000000000000000040100008C0000007C
:20488000FFFFFFFF0600000000000000000000000F000000002100009A200000000000002C
:2048A00004000000060000000401000012000000BED9DEFF00000000FFFFFF44050000001D
:2048C000010000004372616674696E6720526573756C74000000000000000000000000000A
:2048E0000000000000000000000000000000000000000000000000000000000000000000B8
:20490000000000000000000000000000000000000000000000000000000000000000000097
:20492000000000000000000000000000000000000000000000000000000000000000000077
:2049400000000000010000009B2000009A2000000500000013000000290000002800000078
:2049600028000000FFFFFFFF0600000000000000000000000F0000009C2000009A20000088
:20498000000000003200000026000000C800000012000000CCCCCCFF00000000FFFFFF4441
:2049A0000300000001000000546578746F31000000000000000000000000000000000000AE
:2049C0000000000000000000000000000000000000000000000000000000000000000000D7
:2049E0000000000000000000000000000000000000000000000000000000000000000000B7
:204A0000000000000000000000000000000000000000000000000000000000000000000096
:204A200000000000000000000F0000009D2000009A20000000000000320000003C00000082
:204A4000C800000012000000CCCCCCFF00000000FFFFFF440300000001000000546578742F
:204A60006F3200000000000000000000000000000000000000000000000000000000000095
:204A8000000000000000000000000000000000000000000000000000000000000000000016
:204AA0000000000000000000000000000000000000000000000000000000000000000000F6
:204AC000000000000000000000000000000000000000000000000000000000000F000000C7
:204AE0009E2000009A200000000000000A00000055000000F000000012000000CCCCCCFF7A
:204B000000000000FFFFFF4403000000010000004142434445464748494A4B4C4D4E4F50C8
:204B2000000000000000000000000000000000000000000000000000000000000000000075
:204B4000000000000000000000000000000000000000000000000000000000000000000055
:204B6000000000000000000000000000000000000000000000000000000000000000000035
:204B800000000000000000000000000000000000040000009F2000009A200000090000008F
:204BA000500000006E0000006400000018000000FFFFFFFF65000000BED9DEFF00000000E6
:204BC000436F6E6669726D0000000000000000000000000000000000000000000000000007
:204BE0000000000000000000000000000000000000000000000000000000000000000000B5
:204C0000000000000000000000000000000000000000000000000000000000000000000094
:204C2000000000000000000000000000000000000000000000000000000000000000000074
:204C4000000000000000000000000000000000000000000000000000000000000000000054
:204C6000000000000000000000000000000000000000000000000000000000000000000034
:204C8000000000000000000000000000000000000000000000000000000000000000000014
:204CA0000000000000000000000000000000000000000000000000000000000000000000F4
:204CC00003000000D12A0000000000006E000000000000000000000040010000E600000041
:204CE000FFFFFFFF0600000001000000000000000F000000D22A0000D12A000000000000AB
:204D000000000000050000004001000012000000BED9DEFF00000000FFFFFF440500000081
:204D2000010000000000000000000000000000000000000000000000000000000000000072
:204D4000000000000000000000000000000000000000000000000000000000000000000053
:204D6000000000000000000000000000000000000000000000000000000000000000000033
:204D8000000000000000000000000000000000000000000000000000000000000000000013
:204DA0000000000004000000D32A0000D12A0000170000002901000003000000140000009F
:204DC00014000000FFFFFFFF66000000FFFFFFFF0000000020000000000000000000000041
:204DE0000000000000000000000000000000000000000000000000000000000000000000B3
:204E0000000000000000000000000000000000000000000000000000000000000000000092
:204E2000000000000000000000000000000000000000000000000000000000000000000072
:204E4000000000000000000000000000000000000000000000000000000000000000000052
:204E6000000000000000000000000000000000000000000000000000000000000000000032
:204E8000000000000000000000000000000000000000000000000000000000000000000012
:204EA0000000000000000000000000000000000000000000000000000000000000000000F2
:204EC00000000000000000000000000000000000000000000F000000D52A0000D12A0000C9
:204EE0000000000000000000280000004001000012000000BED9DEFF00000000FFFFFF4482
:204F000003000000010000000000000000000000000000000000000000000000000000008D
:204F2000000000000000000000000000000000000000000000000000000000000000000071
:204F4000000000000000000000000000000000000000000000000000000000000000000051
:204F6000000000000000000000000000000000000000000000000000000000000000000031
:204F800000000000000000000F000000D62A0000D12A000000000000000000003C000000CB
:204FA0004001000012000000BED9DEFF00000000FFFFFF44030000000100000000000000E5
:204FC0000000000000000000000000000000000000000000000000000000000000000000D1
:204FE0000000000000000000000000000000000000000000000000000000000000000000B1
:20500000000000000000000000000000000000000000000000000000000000000000000090
:20502000000000000000000000000000000000000000000000000000000000000F00000061
:20504000D72A0000D12A00000000000000000000500000004001000012000000BED9DEFF3D
:2050600000000000FFFFFF44030000000100000000000000000000000000000000000000EB
:20508000000000000000000000000000000000000000000000000000000000000000000010
:2050A0000000000000000000000000000000000000000000000000000000000000000000F0
:2050C0000000000000000000000000000000000000000000000000000000000000000000D0
:2050E000000000000000000000000000000000000F000000D82A0000D12A000000000000A4
:2051000000000000640000004001000012000000BED9DEFF00000000FFFFFF440300000020
:2051200001000000000000000000000000000000000000000000000000000000000000006E
:2051400000000000000000000000000000000000000000000000000000000000000000004F
:2051600000000000000000000000000000000000000000000000000000000000000000002F
:2051800000000000000000000000000000000000000000000000000000000000000000000F
:2051A000000000000F000000D92A0000D12A00000000000000000000780000004001000029
:2051C00012000000BED9DEFF00000000FFFFFF440300000001000000000000000000000004
:2051E0000000000000000000000000000000000000000000000000000000000000000000AF
:2052000000000000000000000000000000000000000000000000000000000000000000008E
:2052200000000000000000000000000000000000000000000000000000000000000000006E
:205240000000000000000000000000000000000000000000000000000F000000DA2A00003B
:20526000D12A000000000000000000008C0000004001000012000000BED9DEFF00000000E0
:20528000FFFFFF4403000000010000000000000000000000000000000000000000000000C9
:2052A0000000000000000000000000000000000000000000000000000000000000000000EE
:2052C0000000000000000000000000000000000000000000000000000000000000000000CE
:2052E0000000000000000000000000000000000000000000000000000000000000000000AE
:205300000000000000000000000000000F000000DB2A0000D12A000000000000000000007E
:20532000A00000004001000012000000BED9DEFF00000000FFFFFF440300000001000000C1
:2053400000000000000000000000000000000000000000000000000000000000000000004D
:2053600000000000000000000000000000000000000000000000000000000000000000002D
:2053800000000000000000000000000000000000000000000000000000000000000000000D
:2053A0000000000000000000000000000000000000000000000000000000000000000000ED
:2053C00010000000DC2A0000D12A00000200000064000000A000000078000000140000002A
:2053E000FFFFFFFF0100000000000066000000000000000013000000000000000000000037
:2054000000000000000000000000000000000000000000000000000000000000000000008C
:2054200000000000000000000000000000000000000000000000000000000000000000006C
:2054400000000000000000000000000000000000000000000000000000000000000000004C
:20546000000000000000000000000000000000000000000000000000000000000400000028
:20548000D42A0000D12A0000090000006E000000BE0000006400000018000000FFFFFFFF66
:2054A00065000000BED9DEFF00000000436F6E6669726D0000000000000000000000000045
:2054C0000000000000000000000000000000000000000000000000000000000000000000CC
:2054E0000000000000000000000000000000000000000000000000000000000000000000AC
:2055000000000000000000000000000000000000000000000000000000000000000000008B
:2055200000000000000000000000000000000000000000000000000000000000000000006B
:2055400000000000000000000000000000000000000000000000000000000000000000004B
:2055600000000000000000000000000000000000000000000000000000000000000000002B
:2055800000000000000000000000000000000000000000000000000000000000000000000B
:2055A00000000000000000000000000003000000412B0000000000006E000000000000000E
:2055C0000000000004010000E6000000FFFFFFFF0600000001000000000000000F000000CE
:2055E000422B0000412B00000000000000000000060000000401000012000000BED9DEFF41
:2056000000000000FFFFFF440500000001000000416A757374204E6174696F6E616C205076
:205620006F6C69636965730000000000000000000000000000000000000000000000000082
:2056400000000000000000000000000000000000000000000000000000000000000000004A
:2056600000000000000000000000000000000000000000000000000000000000000000002A
:20568000000000000000000000000000000000000F000000432B0000412B00000000000021
:2056A00000000000220000000401000012000000FFFFFFFF00000000FFFFFF440100000073
:2056C00001000000506F6C69746963616C206465636973696F6E7320686176652061206D75
:2056E000616A6F7220696D70616374206F6E2074686520636F756E747279000000000000CE
:20570000000000000000000000000000000000000000000000000000000000000000000089
:20572000000000000000000000000000000000000000000000000000000000000000000069
:20574000000000000F000000442B0000412B00000000000000000000360000000401000024
:2057600012000000FFFFFFFF00000000FFFFFF4401000000010000005468696E6B696E679C
:205780002061626F757420746865206E65787420706F6C69746963616C206167656E64612D
:2057A0003F00000000000000000000000000000000000000000000000000000000000000AA
:2057C0000000000000000000000000000000000000000000000000000000000000000000C9
:2057E0000000000000000000000000000000000000000000000000000F000000452B00002A
:20580000412B00000000000019000000500000005A0000000E000000AED9DEFF00000000E7
:20582000FFFFFF44030000000000000054782043436974697A656E0000000000000000001F
:20584000000000000000000000000000000000000000000000000000000000000000000048
:20586000000000000000000000000000000000000000000000000000000000000000000028
:20588000000000000000000000000000000000000000000000000000000000000000000008
:2058A00000000000000000000000000010000000482B0000412B0000D200000064000000C3
:2058C0004E0000007300000014000000BBBBBBFF01000000FFFFFF4400000000020000007F
:2058E0000200000000000000000000000000000000000000000000000000000000000000A6
:20590000000000000000000000000000000000000000000000000000000000000000000087
:20592000000000000000000000000000000000000000000000000000000000000000000067
:20594000000000000000000000000000000000000000000000000000000000000000000047
:2059600000000000000000000F0000004A2B0000412B000000000000D70000005000000010
:20598000140000000E000000AED9DEFF00000000FFFFFF4403000000000000002500000018
:2059A0000000000000000000000000000000000000000000000000000000000000000000E7
:2059C0000000000000000000000000000000000000000000000000000000000000000000C7
:2059E0000000000000000000000000000000000000000000000000000000000000000000A7
:205A0000000000000000000000000000000000000000000000000000000000000F00000077
:205A2000462B0000412B00000000000019000000690000005A0000000E000000AED9DEFF3B
:205A400000000000FFFFFF44030000000000000054782056697369746F7200000000000026
:205A6000000000000000000000000000000000000000000000000000000000000000000026
:205A8000000000000000000000000000000000000000000000000000000000000000000006
:205AA0000000000000000000000000000000000000000000000000000000000000000000E6
:205AC0000000000000000000000000000000000010000000492B0000412B0000D200000004
:205AE00064000000670000007300000014000000BBBBBBFF01000000FFFFFF4400000000E2
:205B0000020000000200000000000000000000000000000000000000000000000000000081
:205B2000000000000000000000000000000000000000000000000000000000000000000065
:205B4000000000000000000000000000000000000000000000000000000000000000000045
:205B6000000000000000000000000000000000000000000000000000000000000000000025
:205B80000000000000000000000000000F0000004B2B0000412B000000000000D70000003D
:205BA00069000000140000000E000000AED9DEFF00000000FFFFFF440300000000000000B2
:205BC0002500000000000000000000000000000000000000000000000000000000000000A0
:205BE0000000000000000000000000000000000000000000000000000000000000000000A5
:205C0000000000000000000000000000000000000000000000000000000000000000000084
:205C2000000000000000000000000000000000000000000000000000000000000000000064
:205C4000040000004D2B0000412B0000090000001E000000A0000000640000001800000019
:205C6000FFFFFFFF65000000BED9DEFF00000000436F6E6669726D00000000000000000081
:205C8000000000000000000000000000000000000000000000000000000000000000000004
:205CA0000000000000000000000000000000000000000000000000000000000000000000E4
:205CC0000000000000000000000000000000000000000000000000000000000000000000C4
:205CE0000000000000000000000000000000000000000000000000000000000000000000A4
:205D0000000000000000000000000000000000000000000000000000000000000000000083
:205D2000000000000000000000000000000000000000000000000000000000000000000063
:205D4000000000000000000000000000000000000000000000000000000000000000000043
:205D600000000000000000000000000000000000040000004E2B0000412B00000900000031
:205D800084000000A00000006400000018000000FFFFFFFF65000000BED9DEFF000000008E
:205DA00043616E63656C00000000000000000000000000000000000000000000000000009D
:205DC0000000000000000000000000000000000000000000000000000000000000000000C3
:205DE0000000000000000000000000000000000000000000000000000000000000000000A3
:205E0000000000000000000000000000000000000000000000000000000000000000000082
:205E2000000000000000000000000000000000000000000000000000000000000000000062
:205E4000000000000000000000000000000000000000000000000000000000000000000042
:205E6000000000000000000000000000000000000000000000000000000000000000000022
:205E8000000000000000000000000000000000000000000000000000000000000000000002
:205EA0000300000081200000000000006E0000000000000000000000040100009600000035
:205EC000FFFFFFFF0600000001000000000000000F0000008220000081200000000000006D
:205EE00004000000060000000401000012000000BED9DEFF00000000FFFFFF4405000000C7
:205F000001000000456E746572204E756D62657200000000000000000000000000000000F9
:205F2000000000000000000000000000000000000000000000000000000000000000000061
:205F4000000000000000000000000000000000000000000000000000000000000000000041
:205F6000000000000000000000000000000000000000000000000000000000000000000021
:205F80000000000004000000862000008120000017000000ED00000003000000140000009B
:205FA00014000000FFFFFFFF66000000FFFFFFFF000000002000000000000000000000004F
:205FC0000000000000000000000000000000000000000000000000000000000000000000C1
:205FE0000000000000000000000000000000000000000000000000000000000000000000A1
:20600000000000000000000000000000000000000000000000000000000000000000000080
:20602000000000000000000000000000000000000000000000000000000000000000000060
:20604000000000000000000000000000000000000000000000000000000000000000000040
:20606000000000000000000000000000000000000000000000000000000000000000000020
:20608000000000000000000000000000000000000000000000000000000000000000000000
:2060A00000000000000000000000000000000000000000000F00000083200000812000008D
:2060C0000000000004000000280000000401000012000000FFFFFFFF00000000FFFFFF4440
:2060E0000300000001000000456E746572204E756D62657200000000000000000000000015
:2061000000000000000000000000000000000000000000000000000000000000000000007F
:2061200000000000000000000000000000000000000000000000000000000000000000005F
:2061400000000000000000000000000000000000000000000000000000000000000000003F
:2061600000000000000000000F00000087200000812000000000000004000000460000007E
:206180002A00000012000000FFFFFFFF00000000FFFFFF4403000000010000005F00000023
:2061A0000000000000000000000000000000000000000000000000000000000000000000DF
:2061C0000000000000000000000000000000000000000000000000000000000000000000BF
:2061E00000000000000000000000000000000000000000000000000000000000000000009F
:2062000000000000000000000000000000000000000000000000000000000000100000006E
:2062200084200000812000000200000053000000460000007800000014000000FFFFFFFFF6
:206240000100000000000066000000000000000010000000000000000000000000000000C7
:2062600000000000000000000000000000000000000000000000000000000000000000001E
:206280000000000000000000000000000000000000000000000000000000000000000000FE
:2062A0000000000000000000000000000000000000000000000000000000000000000000DE
:2062C00000000000000000000000000000000000000000000000000004000000902000000A
:2062E0008120000085000000D2000000460000002800000015000000FFFFFFFF65000000C2
:20630000BED9DEFF000000004D617800006F00000000000000000000000000000000000074
:2063200000000000000000000000000000000000000000000000000000000000000000005D
:2063400000000000000000000000000000000000000000000000000000000000000000003D
:2063600000000000000000000000000000000000000000000000000000000000000000001D
:206380000000000000000000000000000000000000000000000000000000000000000000FD
:2063A0000000000000000000000000000000000000000000000000000000000000000000DD
:2063C0000000000000000000000000000000000000000000000000000000000000000000BD
:2063E00000000000000000000000000000000000000000000000000000000000000000009D
:20640000000000000000000004000000852000008120000009000000500000007300000066
:206420006400000018000000FFFFFFFF65000000BED9DEFF00000000436F6E6669726D003D
:2064400000000000000000000000000000000000000000000000000000000000000000003C
:2064600000000000000000000000000000000000000000000000000000000000000000001C
:206480000000000000000000000000000000000000000000000000000000000000000000FC
:2064A0000000000000000000000000000000000000000000000000000000000000000000DC
:2064C0000000000000000000000000000000000000000000000000000000000000000000BC
:2064E00000000000000000000000000000000000000000000000000000000000000000009C
:2065000000000000000000000000000000000000000000000000000000000000000000007B
:206520000000000000000000000000000000000000000000000000000300000088200000B0
:20654000812000006D0000000800000022000000F40000004C000000FFFFFFAA0600000016
:20656000000000000000000003000000212E0000000000006E000000640000006400000093
:2065800008010000FA000000FFFFFFFF0600000000000000000000000F000000222E000097
:2065A000212E00000000000004000000060000000801000012000000BED9DEFF00000000F3
:2065C000FFFFFF44050000000100000043726561746520416E6E6F746174696F6E000000E5
:2065E00000000000000000000000000000000000000000000000000000000000000000009B
:2066000000000000000000000000000000000000000000000000000000000000000000007A
:2066200000000000000000000000000000000000000000000000000000000000000000005A
:206640000000000000000000000000000F000000232E0000212E0000000000000F0000007C
:20666000280000005000000012000000BBBBBBFF00000000FFFFFF4403000000000000001C
:206680004E6F746520436F6C6F720000000000000000000000000000000000000000000045
:2066A0000000000000000000000000000000000000000000000000000000000000000000DA
:2066C0000000000000000000000000000000000000000000000000000000000000000000BA
:2066E00000000000000000000000000000000000000000000000000000000000000000009A
:206700000F000000242E0000212E0000000000000F00000041000000500000001200000017
:20672000BBBBBBFF00000000FFFFFF440300000000000000436F6E74656E74206F66207481
:206740006865204E6F746500000000000000000000000000000000000000000000000000B6
:20676000000000000000000000000000000000000000000000000000000000000000000019
:206780000000000000000000000000000000000000000000000000000000000000000000F9
:2067A000000000000000000000000000000000000000000004000000282E0000212E000030
:2067C000C200000064000000280000000F0000000F0000006666FFFF65000000FFFFFFFF22
:2067E000000000002000000000000000000000000000000000000000000000000000000079
:20680000000000000000000000000000000000000000000000000000000000000000000078
:20682000000000000000000000000000000000000000000000000000000000000000000058
:20684000000000000000000000000000000000000000000000000000000000000000000038
:20686000000000000000000000000000000000000000000000000000000000000000000018
:206880000000000000000000000000000000000000000000000000000000000000000000F8
:2068A0000000000000000000000000000000000000000000000000000000000000000000D8
:2068C0000000000000000000000000000000000000000000000000000000000000000000B8
:2068E0000000000004000000292E0000212E0000C200000078000000280000000F0000007D
:206900000F00000066AAFFFF65000000FFFFFFFF00000000200000000000000000000000D9
